S023000044413243202D204E756D3320284E756D2031206F662044413241292E7372656338
S11300000C9434000C9446000C9446000C94460066
S11300100C9446000C9446000C9446000C94460044
S11300200C9446000C9446000C9446000C94460034
S11300300C9446000C9446000C9457000C94460013
S11300400C9446000C9446000C9446000C94460014
S11300500C9446000C9446000C9446000C94460004
S11300600C9446000C94460011241FBECFEFD8E038
S1130070DEBFCDBF21E0A0E0B1E001C01D92A230FF
S1130080B207E1F70E9448000C948B000C94000026
S1130090229A84B5826084BD16BC8FEF87BD85B576
S11300A0856085BD82E080936E007894FFCF1F92B7
S11300B00F920FB60F9211242F933F938F939F9318
S11300C021E034E01DC016BC25BB80910001909155
S11300D00101019690930101809300018331910500
S11300E014F415B803C04B970CF035B98091000196
S11300F0909101018C9721F410920101109200015A
S1130100A899E1CF9F918F913F912F910F900FBEAE
S10D01100F901F901895F894FFCF8C
S9030000FC
