:100000000C9434000C9453000C9451000C94510047
:100010000C9451000C9451000C9451000C9451001C
:100020000C9451000C9451000C9451000C9451000C
:100030000C9451000C9451000C9451000C945100FC
:100040000C9451000C9451000C9451000C945100EC
:100050000C9451000C9451000C9451000C945100DC
:100060000C9451000C94510011241FBECFEFD8E026
:10007000DEBFCDBF12E0A0E0B1E0ECEAFFE002C0DD
:1000800005900D92A43AB107D9F722E0A4EAB2E0B4
:1000900001C01D92A33EB207E1F70E943F010C94FC
:1000A000D4070C9400001F920F920FB60F921124E8
:1000B0008F9381E08093A5028F910F900FBE0F90D8
:1000C0001F90189584E480937C0085E880937A00E3
:1000D00008951092DB021092DA0224E0EAE7F0E0E1
:1000E000A8E7B0E0808180648083808186FDFDCFB9
:1000F0004D915C9111978091DA029091DB02840F0F
:10010000951F9093DB028093DA023FEF80E792E045
:10011000315080409040E1F700C00000215011F7BD
:100120008091DA029091DB02969587959695879556
:100130009093DB028093DA020895CF93DF931F92AE
:10014000CDB7DEB786E291E00E94AC0484E591E091
:100150000E94AC0441E050E0BE016F5F7F4F80E041
:100160000E94100289811F928F9380E891E09F93F3
:100170008F930E94960441E050E0BE016F5F7F4F75
:1001800081E00E94100289811F928F9380E991E0A3
:100190009F938F930E94960441E050E0BE016F5FF1
:1001A0007F4F82E00E94100289811F928F9380EA24
:1001B00091E09F938F930E94960441E050E0BE012E
:1001C0006F5F7F4F84E00E94100289811F928F939E
:1001D00083EB91E09F938F930E94960441E050E05F
:1001E000BE016F5F7F4F85E00E94100289811F92E0
:1001F0008F9387EC91E09F938F930E94960441E048
:1002000050E0BE016F5F7F4F86E00E94100289813F
:100210001F928F9387ED91E09F938F930E94960496
:1002200041E050E0BE016F5F7F4F87E00E94100207
:1002300089811F928F9389EE91E09F938F930E9403
:10024000960441E050E0BE016F5F7F4F8DE10E9458
:10025000100289811F928F9389EF91E09F938F9372
:100260000E9496040FB6F894DEBF0FBECDBF8AE0A1
:1002700092E00E94AC040F90DF91CF910895CF934C
:10028000DF93CDB7DEB7A0970FB6F894DEBF0FBEF1
:10029000CDBF8DE1E7E3F2E0DE01119601900D9212
:1002A0008A95E1F70E9468040E9462000E9413028E
:1002B0000E949D000E9438030F2EF4EFAF2EBB2446
:1002C000B394F02D0F2ECC24CA94F3E0DF2EF02D42
:1002D0000F2EF4E5EF2EF2E0FF2EF02D06EC12E0EB
:1002E0000F2EFAE58F2EF2E09F2EF02D502E612E6C
:1002F0000F2EF4E17F2EF02D0E9469002091DA028A
:100300003091DB022A9DC0012B9D900D3A9D900DEE
:100310001124B6010E947B046C5E7F4F7093DB0258
:100320006093DA028091DA029091DB029F938F93BF
:10033000FF92EF921F927F921F930F930E94DC0413
:10034000652D762DCE0101960E948F04CE01019677
:100350000E9443032FEF3DE389E421503040804069
:10036000E1F700C000008091A5020FB6F894DEBF4F
:100370000FBECDBF882309F4BFCF1092A5020E9403
:1003800000049F938F939F928F920E9496043FEF59
:1003900089E698E1315080409040E1F700C00000CC
:1003A000CE0101960E94430391E00F900F900F90B1
:1003B0000F90811101C090E09093A4028091A4025B
:1003C000882309F499CF80E792E00E94AC0490CF93
:1003D000DF92EF92FF920F931F93CF93DF937B01F6
:1003E0008A012A980E944704D82E0115110551F060
:1003F000E7010E0D1F1D88810E9447048993C017D5
:10040000D107C9F72A9A8D2DDF91CF911F910F91B6
:10041000FF90EF90DF90089580620E94E8010895B8
:100420000E94E80108950F931F93CF93DF931F92CB
:10043000CDB7DEB7F894E9E6F0E080818260808392
:10044000E89A7894219A229A2A9A29980E94380444
:100450002FEF81EE94E0215080409040E1F700C002
:1004600000000FE30093DC0241E050E06CED72E02D
:1004700080E00E940C021092DC0241E050E06CED42
:1004800072E081E00E940C0280EF8093DC0241E088
:1004900050E06CED72E084E00E940C021092DC02ED
:1004A00041E050E06CED72E082E00E940C0284E7D3
:1004B0008093DC0241E050E06CED72E085E00E9448
:1004C0000C028EE08093DC0241E050E06CED72E0C3
:1004D00086E00E940C0210E71093DC0241E050E03D
:1004E0006CED72E087E00E940C020093DC0241E0B8
:1004F00050E06CED72E08CE10E940C0284E080938D
:10050000DC0241E050E06CED72E08DE10E940C02F3
:10051000198340E050E060E070E082EE0E940C023F
:1005200040E050E060E070E081EE0E940C0245E0A7
:1005300050E065E071E08AE00E940C0245E050E086
:1005400060E071E080E10E940C0241E050E0BE01F9
:100550006F5F7F4F82E00E940C02898181608983F6
:1005600041E050E0BE016F5F7F4F82E00E940C02CD
:100570000F90DF91CF911F910F9108951F93CF930B
:10058000DF931F92CDB7DEB7182F41E050E0BE01D8
:100590006F5F7F4F80E00E941002133071F128F4EA
:1005A000113059F01230E9F05EC0153009F447C03F
:1005B000D0F1163009F445C056C0898181FD53C081
:1005C00082608093DC0241E050E06CED72E080E0FC
:1005D0000E940C028FE39FE10197F1F700C0000039
:1005E00042C089818D7F8093DC0241E050E06CED58
:1005F00072E080E00E940C0236C0898181608093A5
:10060000DC0241E050E06CED72E080E00E940C0200
:1006100080E78093DC0241E050E06CED72E087E01F
:100620000E940C0220C089818E7F8093DC0241E011
:1006300050E06CED72E080E00E940C0214C029983A
:1006400012C089818E7F8093DC0241E050E06CED26
:1006500072E080E00E940C02299A87E592E00197FF
:10066000F1F700C000000F90DF91CF911F91089526
:1006700083E00E94BE02299A87E592E00197F1F794
:1006800000C000000895CF92DF92EF92FF920F9387
:100690001F93CF93DF93CDB7DEB7A0970FB6F89433
:1006A000DEBF0FBECDBF6C016894FF24F5F8CE010C
:1006B0000196FC012F2D11922A95E9F7B6010E94AF
:1006C0008F04F60101900020E9F731978F010C1992
:1006D0001D0984E00E94BE0240E050E060E070E04E
:1006E00082EE0E940C0240E050E060E070E081EE9B
:1006F0000E940C02F092DC0241E050E06CED72E0EE
:1007000087E00E940C0241E050E06CED72E080E076
:100710000E9410028091DC0280648093DC0241E040
:1007200050E06CED72E080E00E940C022A9880EBB1
:100730000E944204EFEFE00F002381F08601EE2ECD
:10074000F12CF70131967601EE0EFF1EF801819132
:100750008F010E9442040E151F05C1F780E00E9420
:1007600042042A9A299AF0E5FA95F1F7299841E08E
:1007700050E06CED72E087E00E9410028091DC0294
:1007800085FD0BC041E050E06CED72E087E00E9417
:1007900010028091DC0285FFF5CFCE0101969F9378
:1007A0008F938AE892E09F938F930E94960441E092
:1007B00050E06CED72E080E00E9410028091DC025B
:1007C0008F7B8093DC0241E050E06CED72E080E0D2
:1007D0000E940C020E9438030F900F900F900F9010
:1007E00081E0A0960FB6F894DEBF0FBECDBFDF91BB
:1007F000CF911F910F91FF90EF90DF90CF900895D0
:1008000080E2E6EAF2E0DF011D928A95E9F741E035
:1008100050E06CED72E080E60E9410024091DC0234
:10082000442341F050E04F5F5F4F66EA72E081E69B
:100830000E94E8018091A602882369F080E48093F9
:10084000DC0241E050E06CED72E087E00E940C02B7
:1008500086EA92E0089580E48093DC0241E050E073
:100860006CED72E087E00E940C028CE992E0089542
:10087000249884B1886284B980E58CBD8DB581608F
:100880008DBD08958EBD0DB407FEFDCF08958EBDBC
:100890000DB407FEFDCF8EB50895CF93C82F8A30D3
:1008A00019F48DE00E944D04E0ECF0E0808185FFBA
:1008B000FDCFC093C60080E090E0CF910895E0ECBA
:1008C000F0E080818823ECF78091C60090E00895E5
:1008D0001092C50087E68093C40088E18093C10030
:1008E000EDEDF2E088E191E0938382838AE091E08C
:1008F000918380830895AA1BBB1B51E107C0AA1FE7
:10090000BB1FA617B70710F0A61BB70B881F991FB0
:100910005A95A9F780959095BC01CD010895FB01EA
:10092000DC0101900D920020E1F70895A0E0B0E015
:10093000ECE9F4E00C94AD07AE014B5F5F4FFA01B8
:1009400061917191AF018091DF029091E0020E946C
:100950000C05E2E00C94C9070F931F93CF93DF932C
:10096000E091DF02F091E002238121FF1BC08C01A6
:10097000D0E0C0E0F80181918F016091DF027091B9
:10098000E002DB011896ED91FC911997882331F074
:100990000995892B79F3DFEFCFEFECCF8AE009954A
:1009A000892B19F08FEF9FEF02C08D2F9C2FDF91C5
:1009B000CF911F910F910895AEE0B0E0E2EEF4E028
:1009C0000C94AB070D891E898F89988D26E02C83A6
:1009D0001A83098397FF02C080E090E801979E8305
:1009E0008D83AE01455E5F4F698D7A8DCE01019694
:1009F0000E940C054D815E8157FD0AC02F8138850C
:100A0000421753070CF49A01F801E20FF31F10820A
:100A10002E96E4E00C94C707ABE0B0E0E2E1F5E02D
:100A20000C949D076C017B018A01FC0117821682E0
:100A3000838181FFCCC1CE0101963C01F6019381F7
:100A4000F70193FD859193FF81917F01882309F43C
:100A5000BAC1853239F493FD859193FF81917F016D
:100A6000853229F4B60190E00E940307E7CF912C6C
:100A7000212C312CFFE1F315D8F08B3279F038F4CA
:100A8000803279F08332A1F4232D20611DC08D3294
:100A900061F0803369F4232D216016C0832D8260BC
:100AA000382EE32DE4603E2E2AC0F32DF8601DC0E1
:100AB00037FC2DC020ED280F2A3040F08E32B9F4DB
:100AC00036FC81C1232D2064322E19C036FE06C0AB
:100AD0008AE0989E200D1124922E11C0EAE02E9EED
:100AE000200D1124222EF32DF0623F2E08C08C36EB
:100AF00021F4832D8068382E02C0883641F4F70136
:100B000093FD859193FF81917F018111B3CF982F40
:100B10009F7D9554933028F40C5F1F4F9FE399837A
:100B20000DC0833631F0833771F0833509F059C039
:100B300021C0F801808189830E5F1F4F8824839430
:100B4000912C530113C02801F2E04F0E511CF80103
:100B5000A080B18036FE03C0692D70E002C06FEF47
:100B60007FEFC5010E94F8064C018201F32DFF774B
:100B70003F2E16C0280122E0420E511CF801A08031
:100B8000B18036FE03C0692D70E002C06FEF7FEFC9
:100B9000C5010E94ED064C01F32DF0683F2E820145
:100BA00033FC1BC0822D90E088169906B0F4B60184
:100BB00080E290E00E9403072A94F4CFF50137FC0D
:100BC000859137FE81915F01B60190E00E94030795
:100BD00021102A9421E0821A91088114910471F75E
:100BE000E8C0843611F0893641F5F80137FE07C0B8
:100BF00060817181828193810C5F1F4F08C0608189
:100C00007181072E000C880B990B0E5F1F4FF32D7F
:100C1000FF763F2E97FF09C090958095709561955E
:100C20007F4F8F4F9F4FF0683F2E2AE030E0A301A7
:100C30000E943F07882E861845C0853731F4232D42
:100C40002F7EB22E2AE030E025C0932D997FB92E59
:100C50008F36C1F018F4883579F0B5C0803719F0B7
:100C6000883721F0B0C0E92FE061BE2EB4FE0DC080
:100C7000FB2DF460BF2E09C034FE0AC0292F266068
:100C8000B22E06C028E030E005C020E130E002C00E
:100C900020E132E0F801B7FE07C0608171818281F6
:100CA00093810C5F1F4F06C06081718180E090E0EE
:100CB0000E5F1F4FA3010E943F07882E8618FB2D51
:100CC000FF773F2E36FE0DC0232D2E7FA22E8914D6
:100CD00058F434FE0BC032FC09C0832D8E7EA82E42
:100CE00005C0B82CA32C03C0B82C01C0B92CA4FE9D
:100CF0000FC0FE01E80DF11D8081803321F49A2D93
:100D0000997EA92E09C0A2FE06C0B394B39404C074
:100D10008A2D867809F0B394A3FC11C0A0FE06C00A
:100D2000B21488F4280C922C9B180EC0B21460F4F4
:100D3000B60180E290E00E940307B394F7CFB214AB
:100D400018F42B1802C0982C212CA4FE10C0B60158
:100D500080E390E00E940307A2FE17C0A1FC03C03D
:100D600088E790E002C088E590E0B6010CC08A2DCB
:100D7000867859F0A1FE02C08BE201C080E2A7FC98
:100D80008DE2B60190E00E940307891438F4B601A1
:100D900080E390E00E9403079A94F7CF8A94F301CE
:100DA000E80DF11D8081B60190E00E9403078110DB
:100DB000F5CF222009F442CEB60180E290E00E94F5
:100DC00003072A94F6CFF6018681978102C08FEF40
:100DD0009FEF2B96E2E10C94B907FC01059061505E
:100DE00070400110D8F7809590958E0F9F1F089541
:100DF000FC016150704001900110D8F780959095EA
:100E00008E0F9F1F08950F931F93CF93DF93FB01C6
:100E1000238121FD03C08FEF9FEF2CC022FF16C05E
:100E200046815781248135814217530744F4A081BC
:100E3000B1819D012F5F3F4F318320838C932681A9
:100E400037812F5F3F4F3783268314C08B01EC011E
:100E5000FB010084F185E02D0995892BE1F6D8018D
:100E600016968D919C911797019617969C938E9349
:100E70001697CE01DF91CF911F910F910895FA013E
:100E8000AA27283051F1203181F1E8946F936E7FC9
:100E90006E5F7F4F8F4F9F4FAF4FB1E03ED0B4E0BA
:100EA0003CD0670F781F891F9A1FA11D680F791FFB
:100EB0008A1F911DA11D6A0F711D811D911DA11D0C
:100EC00020D009F468943F912AE0269F112430191C
:100ED000305D3193DEF6CF010895462F4770405DB7
:100EE0004193B3E00FD0C9F7F6CF462F4F70405D66
:100EF0004A3318F0495D31FD4052419302D0A9F7C1
:100F0000EACFB4E0A6959795879577956795BA95BA
:100F1000C9F700976105710508959B01AC010A2E80
:100F200006945795479537952795BA95C9F7620F57
:100F3000731F841F951FA01D08952F923F924F92FB
:100F40005F926F927F928F929F92AF92BF92CF9259
:100F5000DF92EF92FF920F931F93CF93DF93CDB762
:100F6000DEB7CA1BDB0B0FB6F894DEBF0FBECDBFDA
:100F700009942A88398848885F846E847D848C84AB
:100F80009B84AA84B984C884DF80EE80FD800C81B4
:100F90001B81AA81B981CE0FD11D0FB6F894DEBF97
:0C0FA0000FBECDBFED010895F894FFCF07
:100FAC00171717171777777777770000000100006E
:100FBC00000000005F0400000000000200000000C0
:100FCC004D040000000053746172747570207375C9
:100FDC00636365737366756C0A0A206E524632340D
:100FEC004C30312B20636F6E6669677572656420B7
:100FFC0061733A002D2D2D2D2D2D2D2D2D2D2D2DBB
:10100C002D2D2D2D2D2D2D2D2D2D2D2D2D2D2D2D04
:10101C002D2D2D2D2D2D2D2D2D2D2D2D2D2D2D0021
:10102C00434F4E46494709093078253032580A005B
:10103C00454E5F41410909093078253032580A0084
:10104C00454E5F525841444452090930782530329C
:10105C00580A0053455455505F52455452090930B3
:10106C0078253032580A0052465F43480909093046
:10107C0078253032580A0052465F53455455500972
:10108C00093078253032580A0053544154555309CD
:10109C00093078253032580A00464541545552459E
:1010AC0009093078253032580A002D2D2D2D2D2D83
:1010BC002D2D2D2D2D2D2D2D2D2D2D2D2D2D2D2D54
:1010CC002D2D2D2D2D2D2D2D2D2D2D2D2D2D2D2D44
:1010DC002D2D2D2D2D0A00546869732069732074F1
:1010EC006865206D6573736167652066726F6D202E
:1010FC004D6F65002533640D0A004D657373616790
:10110C00652072656365697665643A2025730A000B
:10111C004D6573736167652073656E7420737563B9
:10112C006365737366756C6C79004D657373616779
:10113C00652073656E743A2025730A006661696CCC
:04114C0065640000D6
:00000001FF
