S020000044413241204320636F646520666F72206E756D62657220322E737265638C
S11300000C9434000C943E000C943E000C943E007E
S11300100C943E000C943E000C943E000C943E0064
S11300200C943E000C943E000C943E000C943E0054
S11300300C943E000C943E000C943E000C943E0044
S11300400C943E000C943E000C943E000C943E0034
S11300500C943E000C943E000C943E000C943E0024
S11300600C943E000C943E0011241FBECFEFD8E048
S1130070DEBFCDBF0E9440000C9459000C940000D8
S1130080229A85E080938100E4E8F0E02FEF319B31
S11300900EC0118210828081918185329642B8F718
S11300A025B98081918185329642D0F3F0CF15B87D
S10900B0EECFF894FFCF2F
S9030000FC
