S01400004441344220537465707065722E7372656312
S11300000C9434000C9446000C9446000C94460066
S11300100C9446000C9446000C9446000C94460044
S11300200C9446000C9446000C9446000C94460034
S11300300C9446000C9446000C9446000C94460024
S11300400C9446000C9446000C9446000C94460014
S11300500C9446000C9446000C9446000C94460004
S11300600C9446000C94460011241FBECFEFD8E038
S1130070DEBFCDBF21E0A0E0B1E001C01D92A230FF
S1130080B207E1F70E9448000C9405010C940000AB
S11300908FEF84B915B880E480937C0087EE809359
S11300A07A0080E8809380008DE0809381008091C5
S11300B078009091790090930101809300019093CE
S11300C0890080938800E8E8F0E059E043E036E0F6
S11300D02CE080819181808191818436910510F595
S11300E055B98FE19EE40197F1F700C0000045B9CE
S11300F08FE19EE40197F1F700C0000035B98FE16C
S11301009EE40197F1F700C0000025B98FE19EE459
S11301100197F1F700C00000809100019091010166
S113012091838083808191818436910598F18081C7
S11301309181883C910570F555B99FEF60E782E0A5
S1130140915060408040E1F700C0000045B99FEF46
S113015060E782E0915060408040E1F700C0000019
S113016035B99FEF60E782E0915060408040E1F74D
S113017000C0000025B99FEF60E782E09150604025
S11301808040E1F700C000008091000190910101DE
S11301909183808380819181883C910508F499CF73
S11301A0808191818C32914008F093CF55B98FEFC3
S11301B091EE64E0815090406040E1F700C000009F
S11301C045B98FEF91EE64E0815090406040E1F7D3
S11301D000C0000035B98FEF91EE64E0815090408B
S11301E06040E1F700C0000025B98FEF93ED60E3B4
S11301F0815090406040E1F700C000008091000110
S1110200909101019183808364CFF894FFCF25
S9030000FC
