:020000020000FC
:100000000C9404000C94140008E00EBF4FEF0DBFD9
:1000100002E000936900259A1FEF15B95A9A01E092
:100020000DBB78940C94120055B160E2562755B977
:1000300001D0189509D008D007D006D005D004D03B
:1000400003D002D001D000D009D008D007D006D00C
:1000500005D004D003D002D001D000D003D002D00C
:1000600001D000D00FD00ED00DD00CD00BD00AD0C4
:1000700009D008D007D006D005D004D003D002D0D4
:1000800001D000D03F9333EF0000000000000000DB
:0A00900000003A95C9F73F9108956A
:00000001FF
