S010000044413242202D20432E737265636B
S11300000C9434000C944D000C943E000C943E006F
S11300100C943E000C943E000C943E000C943E0064
S11300200C943E000C943E000C943E000C943E0054
S11300300C943E000C943E000C943E000C943E0044
S11300400C943E000C943E000C943E000C943E0034
S11300500C943E000C943E000C943E000C943E0024
S11300600C943E000C943E0011241FBECFEFD8E048
S1130070DEBFCDBF0E9440000C946A000C940000C7
S113008080E284B98FEF85B984E08BB982E08093F4
S1130090690081E08DBB7894FFCF1F920F920FB659
S11300A00F9211242F938F939F9395B180E2892708
S11300B085B92FEF88E09DE3215080409040E1F71F
S11300C000C000009F918F912F910F900FBE0F9051
S10B00D01F901895F894FFCF6E
S9030000FC
