:100000000C9434000C9446000C9446000C9446006A
:100010000C945D000C9446000C9446000C94460031
:100020000C9446000C9446000C9446000C94460038
:100030000C9446000C9446000C9446000C94460028
:100040000C9446000C9446000C9446000C94460018
:100050000C9446000C9446000C9446000C94460008
:100060000C9446000C94460011241FBECFEFD8E03C
:10007000DEBFCDBF21E0A0E0B1E001C01D92A43001
:10008000B207E1F70E9448000C94A8000C9400000D
:10009000789484E087B980E48AB9419A83E884BD82
:1000A00085E085BD82E08093680080936C001092AB
:1000B0007C0087EE80937A00FFCF1F920F920FB6DD
:1000C0000F9211242F938F939F93EF93FF93319966
:1000D00035C0809100019091010181309105C1F4FA
:1000E000EAE7F0E0808184FFFDCF80917800909175
:1000F0007900909303018093020187BD2FEF89E679
:1001000098E1215080409040E1F700C000000CC011
:10011000892B51F417BC2FEF89E698E121508040DC
:100120009040E1F700C00000809100019091010132
:1001300021E082279093010180930001FF91EF91CC
:100140009F918F912F910F900FBE0F901F90189538
:04015000F894FFCF51
:00000001FF
