:100000000C9434000C9446000C9446000C9446006A
:100010000C9446000C9446000C9446000C94460048
:100020000C9446000C9446000C9446000C94460038
:100030000C9446000C9446000C9446000C94460028
:100040000C9455000C9446000C9446000C94460009
:100050000C9446000C9446000C9446000C94460008
:100060000C9446000C94460011241FBECFEFD8E03C
:10007000DEBFCDBF21E0A0E0B1E001C01D92A23003
:10008000B207E1F70E9448000C948D000C94000028
:10009000229A14BC16BC85B5856085BD7894EEE6C1
:1000A000F0E0808181608083FFCF1F920F920FB6B6
:1000B0000F9211242F933F938F939F9322E03FEF52
:1000C00021C016BC25BB80910001909101010196D1
:1000D0009093010180930001319B0DC016BC80916B
:1000E00000019091010140976CF435B91092010123
:1000F0001092000107C041972CF015B81092010131
:1001000010920001A999DDCF9F918F913F912F917E
:0E0110000F900FBE0F901F901895F894FFCF20
:00000001FF
