S023000044413243202D204E756D3320284E756D2032206F662044413241292E7372656337
S11300000C9434000C9446000C9446000C94460066
S11300100C9446000C9446000C9446000C94460044
S11300200C9446000C9446000C9446000C94460034
S11300300C9446000C9446000C9457000C94460013
S11300400C9446000C9446000C9446000C94460014
S11300500C9446000C9446000C9446000C94460004
S11300600C9446000C94460011241FBECFEFD8E038
S1130070DEBFCDBF21E0A0E0B1E001C01D92A230FF
S1130080B207E1F70E9448000C948F000C94000022
S1130090229A84B5826084BD16BC8FEF87BD85B576
S11300A0856085BD789482E080936E00FFCF1F92B7
S11300B00F920FB60F9211242F933F938F939F9318
S11300C021E03FEF21C016BC25BB80910001909137
S11300D0010101969093010180930001319B0DC0B1
S11300E016BC809100019091010183976CF435B99D
S11300F0109201011092000107C084972CF015B8EA
S11301001092010110920001A899DDCF9F918F9167
S11301103F912F910F900FBE0F901F901895F89458
S1050120FFCF0B
S9030000FC
