:100000000C9434000C9446000C9446000C9446006A
:100010000C9446000C9446000C9446000C94460048
:100020000C9446000C9446000C9446000C94460038
:100030000C9446000C9446000C9446000C94460028
:100040000C9446000C9446000C9446000C94460018
:100050000C9446000C9446000C9446000C94460008
:100060000C9446000C94460011241FBECFEFD8E03C
:10007000DEBFCDBF21E0A0E0B1E001C01D92A23003
:10008000B207E1F70E9448000C948C000C94000029
:100090008FEF84B98AB980EC80937C0086EA8093E4
:1000A0007A0082EA809380008DE18093810088E865
:1000B00093E19093870080938600EAE7F0E0A8E759
:1000C000B0E0C8E8D0E027E132E0808184FFFDCFD6
:1000D0008D919C911197909301018093000100975D
:1000E00061F4198218824FEF8BE49DE1415080400A
:1000F0009040E1F700C00000E8CF8F3F910529F75D
:10010000398328834FEF8BE49DE14150804090403C
:0C011000E1F700C00000D9CFF894FFCF49
:00000001FF
