S023000044413243202D204E756D3120284E756D2032206F662044413241292E7372656339
S11300000C9434000C9446000C9446000C94460066
S11300100C9446000C9446000C9446000C94460044
S11300200C9446000C9446000C9446000C94460034
S11300300C9446000C9446000C9446000C94460024
S11300400C9446000C9446000C9446000C94460014
S11300500C9446000C9446000C9446000C94460004
S11300600C9446000C94460011241FBECFEFD8E038
S1130070DEBFCDBF21E0A0E0B1E001C01D92A230FF
S1130080B207E1F70E9448000C9476000C9400003B
S1130090229A14BC16BC85B5856085BD3AE021E082
S11300A04FEF21C036BD25BB809100019091010125
S11300B001969093010180930001319B0DC046BDD0
S11300C0809100019091010183976CF445B91092DD
S11300D001011092000107C084972CF015B810920A
S11300E0010110920001A899DDCFFDCFF894FFCF54
S9030000FC
